:020000040800F2
:10000000D004002001010008F71500087F12000845
:10001000F5150008650300085317000800000000EC
:10002000000000000000000000000000FD150008B6
:100030006703000800000000F9150008FF1500081C
:100040001B0100081B0100081B0100081B01000820
:100050001B010008FB1500081B0100081B0100081C
:100060001B0100081B0100081B0100081B01000800
:100070001B0100081B0100081B0100081B010008F0
:100080001B0100081B0100081B0100081B010008E0
:100090001B0100081B0100081B0100081B010008D0
:1000A0001B010008511600081B0100081B01000875
:1000B0001B0100081B0100081B0100081B010008B0
:1000C0001B0100081B0100081B0100081B010008A0
:1000D0001B0100081B0100081B0100081B01000890
:1000E0001B0100081B0100081B010008DFF80CD0F1
:1000F00000F026F900480047D51A0008D004002077
:100100000648804706480047FEE7FEE7FEE7FEE7B1
:10011000FEE7FEE7FEE7FEE7FEE7FEE74F16000814
:10012000ED000008D2B201E000F8012B491EFBD21D
:1001300070470022F6E710B513460A4604461946F2
:10014000FFF7F0FF204610BDF0B480EA0102D40FA3
:100150004200B2EB410F02D20246084611464A0065
:1001600042D0C30DDDB2C1F3C752AD1A202D35DA2E
:10017000C1F3160141F4000204B15242C5F1200658
:1001800002FA06F12A411044B3EBD05F23D0C4B188
:10019000012DA0EBC35009DCF0BC4FF0004202EA95
:1001A000C352DBB200F5000000F09CB8400000F143
:1001B000807000EBC350A0F1807040EAD17049001C
:1001C00009E0490841EAC071A0EBC35000F5000006
:1001D000400800EBC350F0BC00F07BB86142012244
:1001E00002EB4101001BF6E7F0BC704781F00041D3
:1001F000AAE780F00040A7E730B480EA010202F0ED
:10020000004530F0004221F0004013D090B1C30D02
:10021000D40DC2F31601C0F31600E41A41F4000134
:1002200040F400027D34914201D3641C00E0490097
:10023000002C02DA30BC002070474FF4000000238D
:10024000914201D3891A034340084FEA4101F7D193
:1002500051B1914202D14FF0004105E002D24FF07E
:10026000010101E06FF0010103EBC450284430BCF0
:1002700000F02FB800F0004220F00040C10DC0F3A4
:10028000160040F400007F2901DA0020704796290B
:1002900003DCC1F19601C84001E096398840002A8C
:1002A000F4D04042704730B50B4601460020202272
:1002B000012409E021FA02F59D4205D303FA02F573
:1002C000491B04FA02F52844151EA2F10102F1DCD3
:1002D00030BD0029A8BF7047401C490008BF20F06E
:1002E0000100704710B4B0FA80FC00FA0CF050EA3C
:1002F000010404BF10BC704749B1CCF1200421FABD
:1003000004F411FA0CF118BF012121430843A3EBB7
:100310000C01CB1D4FEA00614FEA102042BF0020C4
:1003200010BC704700EBC35010440029A4BF10BCA0
:100330007047401C490008BF20F0010010BC704706
:10034000064C074D06E0E06840F0010394E8070022
:1003500098471034AC42F6D3FFF7CCFED41D00080A
:10036000F41D0008FEE7704770B5044600F008F978
:100370000546601C02D004480078044400F000F9EF
:10038000401BA042FAD370BD240000202DE9F84F95
:10039000DFF8B891002409F1040A0AF1040B23469E
:1003A0000F270BF1040EC9E00125A5402A40AA42FF
:1003B0007DD1674ED1F804C0ACEB0608B44532D00D
:1003C00014DCBCF1030F3AD009DCBCF1000F2AD0D9
:1003D000BCF1010F1CD0BCF1020F31D11DE0BCF10A
:1003E000110F17D0BCF1120F2AD119E0B8F5881FF0
:1003F00019D006DCB8F5803F15D0B8F5801F1FD1A5
:1004000011E0B8F5001F0ED0B8F5041F18D10AE0AE
:10041000CB6815E0CB681B1D12E0CB6808330FE0FA
:10042000CB680C330CE08B682BB1012B4FF0080329
:1004300003D0456104E0042302E0056100E00023ED
:10044000FF2A01D8064601E000F104064FEA8405C0
:1004500001D9A5F12005D6F8008007FA05FC28EAA5
:100460000C0803FA05F548EA0508C6F800804D684F
:10047000ED0062D5374DAE6946F00106AE61AD695B
:1004800024F0030605F001050095334D06EB050C3D
:10049000DCF80850A607360F07FA06F825EA080523
:1004A000DFF8B880404503D14FF0000817E044E082
:1004B000DFF8AC80404502D14FF001080FE0DFF8D3
:1004C000A480404502D14FF0020808E0DFF8988090
:1004D000404502D14FF0030801E04FF0040808FA4C
:1004E00006F848EA0508CCF808804D68D9F800609D
:1004F000ED034D4601D5164300E096432E604D684E
:10050000DAF80060AD03554601D5164300E0964386
:100510002E604D68DBF80060ED025D4601D51643A4
:1005200000E096432E604D68DEF80060AD0275462F
:1005300001D5164300E096432E60641C0D682A46E0
:10054000E5407FF431AFBDE8F88F000000040140C2
:10055000000011100010024000000140000801409E
:10056000000C014000100140001401408068084068
:1005700000D0012070470AB1016170470904FBE710
:1005800001488068704700002400002070B5040016
:1005900025D094F83D00002520B984F83C50204631
:1005A00000F04EF9242084F83D002068016821F015
:1005B000010101602068016841F400410160206888
:1005C000016821F40041016000F09EFA4D4A616823
:1005D000914201D84C4900E04C49884201D20120A7
:1005E00070BD4B492368B0FBF1F15E6826F03F0611
:1005F0000E435E606368934206D94FF49673594385
:100600004FF47A73B1FBF3F12368491C1E6A26F09C
:100610003F06314319626168914210D84900401E7B
:10062000B0FBF1F2521CC2F30B02042A01D20420E7
:1006300022E0B0FBF1F0401CC0F30B001CE0A2680C
:10064000F2B301EBC10303EB0116431EB3FBF6F358
:100650005B1C43F480431B0549D092B301EBC102FC
:1006600002EB0111401EB0FBF1F0401CC0F30B0087
:1006700040F4804040F400402168CA694CF6FF73A2
:100680009A431043C861D4E9071001432068026807
:1006900022F0C00211430160D4E903010143206844
:1006A000826848F2FF339A4311438160D4E905011F
:1006B00008432168CA6822F0FF021043C86001E0C5
:1006C0000EE016E02068016841F001010160256438
:1006D000202084F83D00256384F83E50002070BD42
:1006E00001EB4106431EB3FBF6F35B1CB3E70120AD
:1006F000C2E701EB4101401EB0FBF1F0401CC0F32A
:100700000B00B7E7A086010080841E0000093D00B1
:1007100040420F002DE9F84F1F4690468A46044696
:10072000DDF82890FFF72CFF054694F83D002028BF
:100730007FD11923012240492046009500F02CFE6C
:10074000002876D194F83C00012872D0012084F86A
:100750003C0020680168C90703D1016841F001012C
:1007600001602068016821F400610160212084F8A3
:100770003D00102084F83E0000262664C4F8248042
:100780006785608D20852D48E0622B464A4651469C
:10079000204600F08DFD90B9206841698069009085
:1007A00036E02A464946204600F075FE50B1206CDE
:1007B000042804D12068016841F40071016001201F
:1007C000BDE8F88F606A216800780861606A401CA3
:1007D0006062618D491E6185218D491E89B2218526
:1007E00022685369DB435B070BD451B10078106179
:1007F000606A401C6062608D401E6085208D401ED6
:1008000020852A464946204600F0A0FD0028CED18A
:10081000208D0028C5D154F83D0B016841F40071CA
:100820000160202004F81E09E67766770020C7E7FC
:10083000FFE70220C4E70000020010000000FFFFF5
:1008400010B586B0002100910191029103910068DA
:100850000F4988421AD10F4CA06940F00800A061EE
:10086000A069694600F008000490C02000901220A2
:100870000190032003900848FFF788FDE06940F4E9
:100880000010E061E06900F40010049006B010BDB3
:100890000054004000100240000C014002488168F2
:1008A000027811448160704724000020074810B589
:1008B000016841F010010160032000F07DF8002084
:1008C00000F006F800F024F8002010BD00200240DF
:1008D00070B50D4D04464FF47A712878B1FBF0F0F5
:1008E0000A490968B1FBF0F000F0E4FA48B9102CAD
:1008F00007D200222146501E00F03EF800206C6016
:1009000070BD012070BD00002400002030000020D8
:10091000104808B5816941F001018161816901F0E8
:1009200001010091C16941F08051C161C06900229B
:1009300000F0805000901146052000F01DF80520C1
:1009400000F00CF80448416821F0E06141F00071CA
:10095000416008BD0010024000000140002809DB92
:1009600000F01F02012191404009800000F1E020C9
:10097000C0F8001170470000F0B40E4B1B680C4625
:10098000C3F30223C3F10705042D00D90425191D63
:10099000072901D2002300E0DB1E012606FA05F13B
:1009A000491E214099409E40761E16403143F0BCBE
:1009B00000F0E4BE0CED00E0064900F00702086814
:1009C0004FF6FF03184040EA0220034A1043086034
:1009D000704700000CED00E00000FA052DE9F0473B
:1009E0000F46050061D0434E306800F00700B84262
:1009F00009D2306820F0070038433060306800F0DA
:100A00000700B84251D128683B4C810712D54007F6
:100A100003D5606840F4E06060602878000703D583
:100A2000606840F4605060606068A96820F0F00081
:100A3000084360602878C00728D06868012810D073
:100A40002168022810D0890700292EDA616821F078
:100A5000030101436160FFF793FD804641F288394D
:100A60000DE021688903EFE78901EDE7FFF788FDD5
:100A7000A0EB0801494502D90320BDE8F087606872
:100A8000696800F00C00B0EB810FEFD1306800F026
:100A90000700B8420BD9306820F0070038433060B7
:100AA000306800F00700B84201D00120E5E728785F
:100AB000400705D56068E96820F4E060084360609D
:100AC0002878000706D56068296920F4605040EA5C
:100AD000C100606000F028F86168084AC1F30311A2
:100AE000515CC8400649086006480068FFF7F0FE00
:100AF0000020C2E70020024000100240BC1D000898
:100B0000300000202800002004480549006849689A
:100B1000044AC1F30221515CC840704730000020F4
:100B200000100240CC1D000812A185B00FC98DE84D
:100B30000F0014A0144A006804905168134801F093
:100B40000C03042B10D0082B0ED1C1F38343C9032F
:100B50001DF803000AD5516804AAC1F34041515C55
:100B60000A4A5043B0FBF1F005B0704708494843CA
:100B7000FAE7000002030405060708090A0B0C0D3A
:100B80000E0F1010010200000010024000127A0047
:100B900000093D002DE9F84F040070D02078C04DC9
:100BA000C00749D06868C0F38100012807D0686891
:100BB000C0F38100022809D16868C00306D52868FF
:100BC000800339D560680028E7D035E06068B0F56B
:100BD000803F0BD010B1B0F5A02F11D0286820F4C1
:100BE00080302860286820F4802002E0286840F4E3
:100BF00080302860606890B1FFF7C2FC06460AE0CA
:100C0000286840F480202860F0E700BFFFF7B8FCB8
:100C1000801B642873D828688003F7D50CE0FFF7A1
:100C2000AFFC064605E000BFFFF7AAFC801B642866
:100C3000F0D828688003F7D420789A4E80074FF0C8
:100C400001094FF0000839D5686810F00C0F07D083
:100C50006868C0F38100022809D16868C00306D41F
:100C60002868800714D52069012808D110E0206980
:100C7000B0B1C6F80090FFF783FC074605E00AE133
:100C8000FFF77EFCC01B0228C4D828688007F7D570
:100C90002868616920F0F80040EAC10028600DE092
:100CA000C6F80080FFF76CFC074604E0FFF768FC1D
:100CB000C01B022823D828688007F7D420780007B3
:100CC0002CD57948A169D9B1C0F80090FFF758FC3C
:100CD000074604E0FFF754FCC01B02280FD8686ADF
:100CE0008007F7D571484FF4FA510068B0FBF1F076
:100CF000009000BF0098411E0091FAD20EE080E003
:100D0000C0F80080FFF73CFC074604E0FFF738FC22
:100D1000C01B022875D8686A8007F7D4207840077E
:100D200060D5E8690027C00008D4E86940F0805029
:100D3000E861E869012700F0805000905C48016894
:100D4000C90513D40168834641F480710160FFF73F
:100D500017FC824606E000BFFFF712FCA0EB0A007A
:100D600064284ED8DBF80000C005F5D5E0680128FE
:100D70000AD008B1052813D0286A20F001002862A3
:100D8000286A20F0040002E0286A40F0010028628E
:100D9000E06841F2883B98B1FFF7F2FB82460BE036
:100DA000286A40F004002862EEE700BFFFF7E8FB86
:100DB000A0EB0A0159455AD8286A8007F6D50CE0FD
:100DC000FFF7DEFB824605E0FFF7DAFBA0EB0A0146
:100DD00059454CD8286A8007F6D41FB1E86920F03D
:100DE0008050E861E06988B36968C1F38101022934
:100DF00044D00228C6F8608004D0FFF7C1FB044647
:100E000038E034E0FFF7BCFB074604E0FFF7B8FB2F
:100E1000C01B02282BD828688001F7D4206AB0F5BF
:100E2000803F05D16868A16820F4003008436860FD
:100E3000D4E908010843696821F474110843686023
:100E4000C6F86090FFF79CFB044606E025E000BF73
:100E5000FFF796FB001B022809D828688001F7D508
:100E60001BE000BFFFF78CFB001B022802D9032008
:100E7000BDE8F88F28688001F4D40EE00128F7D08F
:100E80006868226A00F48031914204D1616A00F4FA
:100E90007010884201D00120EAE70020E8E7000056
:100EA0000010024000004242800442423000002014
:100EB0000070004010B5401EB0F1807F01D30120CA
:100EC00010BD4FF0E02460610F21601700F056FC68
:100ED0000020A06107202061002010BD70477047EE
:100EE00070B590F83C20012A26D0012480F83C40BF
:100EF000022280F83D2003685A689D6822F070063F
:100F00000A6832435A600D4B02689A4208D0B2F127
:100F1000804F05D00A4B9A4202D00A4B9A4204D124
:100F2000496825F080031943916080F83D40002115
:100F300080F83C10084670BD022070BD002C0140B6
:100F4000000400400008004010B5040003D094F8ED
:100F50003D0010B107E0012010BD002084F83C00E6
:100F6000204600F01FF8022084F83D00211D206873
:100F700000F084FB012084F8460084F83E0084F8E9
:100F80003F0084F8400084F8410084F8420084F86F
:100F9000430084F8440084F8450084F83D000020B4
:100FA00010BD000008B500680B49884212D10B48FB
:100FB000816941F4006181618069002200F4006070
:100FC000009011461920FFF7D7FCBDE80840192012
:100FD000FFF7C4BC08BD0000002C01400010024017
:100FE00090F83D10012901D001207047022180F8BE
:100FF0003D100168CA6842F00102CA6000680B49EE
:10100000884208D0B0F1804F05D00949884202D00B
:101010000849884204D1816801F00701062903D0FC
:10102000016841F00101016000207047002C01407F
:10103000000400400008004070B5044690F83C00F1
:10104000012817D0012584F83C50022084F83D0087
:101050002068826822F0770222F47F42826008686A
:10106000502830D00DDC20284DD005DC98B3102856
:101070003BD148E0022070BD302844D0402834D114
:1010800039E0602828D0702806D0B0F5805F2CD0D9
:10109000B0F5005F29D10AE0CB68D1E901212068D1
:1010A00000F022FB2068816841F0770109E0CB68FD
:1010B000D1E90121206800F017FB2068816841F424
:1010C0008041816011E0CA684968206800F01EFB19
:1010D0005021206807E016E0CA684968206800F0DF
:1010E00026FB6021206800F009FB84F83D500020B9
:1010F00084F83C0070BDCA684968206800F006FBAF
:1011000040212068EFE7226801461046EBE7704770
:1011100070B50446006801694FF00005C9438907AE
:1011200015D4C168C943890711D4E91E01610120A2
:101130002077206880698007204602D0FFF7E7FF0C
:1011400004E000F098F8204600F096F82577206833
:101150000169C943490717D4C168C943490713D472
:101160006FF004010161022020772068806910F48B
:10117000407F204602D0FFF7CAFF04E000F07BF872
:10118000204600F079F8257720680169C9430907EE
:1011900016D4C168C943090712D46FF00801016170
:1011A000042020772068C0698007204602D0FFF71E
:1011B000AEFF04E000F05FF8204600F05DF8257710
:1011C00020680169C943C90617D4C168C943C90663
:1011D00013D46FF010010161082020772068C069E6
:1011E00010F4407F204602D0FFF791FF04E000F0AA
:1011F00042F8204600F040F8257720680169C9438D
:10120000C90708D1C168C943C90704D1891E016152
:10121000204600F032F820680169C943090609D464
:10122000C168C943090605D46FF0800101612046F9
:10123000FFF754FE20680169C943490609D4C16813
:10124000C943490605D46FF040010161204600F012
:1012500015F820680169C94389060BD4C168C943E0
:10126000890607D46FF0200101612046BDE8704077
:10127000FFF735BE70BD7047704770477047FEE797
:1012800001684A69D24352050FD46FF480624A6103
:10129000002140F8301F202242738173026942F01E
:1012A00004020261017301207047002070470000B2
:1012B000F8B50446C06A1E460D461746082807D0F2
:1012C000012805D010F5803F02D0206B122804D1F0
:1012D0002068016841F480710160134600224FF0DC
:1012E00001112046009600F057F840B120680068D0
:1012F000C00502D54FF4007020640320F8BD2069BA
:10130000B0F5804F0ED00620216800EAD51040F0DD
:10131000F000086133463A460B49204600F070F869
:1013200078B902E005F0FE0000E0E8B2216808614B
:10133000054933463A46891F204600F061F80028E7
:10134000DCD00120F8BD00000800010070B5164691
:101350000D4604460DE02046FFF792FF08B101203C
:1013600070BD681C05D0FFF70BF9801BA84207D899
:1013700035B120684069C0434007ECD4002070BDFF
:10138000002044F8300F20216173A073216941F0DF
:10139000200121612073E2E72DE9F0471E469046C7
:1013A0000D460446C1F30747DDF8209008E0701CA5
:1013B00006D0FFF7E5F8A0EB0900B0420FD876B1F0
:1013C0002068012F18D0806925EA00000004000C75
:1013D00014D000214145EAD00020BDE8F08700206C
:1013E00044F8300F20216173A073216941F020017E
:1013F000216120730120F0E74069E5E70121E9E779
:101400002DE9F0479A4691460E46044600254FF0D6
:101410002008C1F3074725E020684069C043400524
:1014200014D42068016841F40071016021686FF4F0
:1014300080604861256384F83D8084F83E50206CCC
:1014400040F00400206484F83C501FE0B9F1FF3FF5
:1014500008D0FFF795F8A0EB0A0149450CD8B9F17F
:10146000000F09D02068012F13D0806926EA000000
:101470000004000C0BD0CFE744F8305F84F80D80F7
:10148000A573206940F02000206125730120BDE88C
:10149000F0874069EAE770B516460D4604460DE050
:1014A0002046FFF7EDFE08B1012070BD681C05D095
:1014B000FFF766F8801BA84207D835B1206840695D
:1014C000C0430006ECD4002070BD002044F8300F6B
:1014D00020216173A073216941F0200121612073F3
:1014E000E2E7000070B586B000242448009401941F
:1014F00002940394816941F010018161816901F0D6
:1015000010010491816941F020018161816901F03C
:1015100020010491816941F004018161816901F038
:1015200004010491816941F0080181618069144ED0
:1015300000F008004FF40055049000222946304680
:10154000FFF719F80220CDE9024000950125694610
:1015500001953046FEF71AFF06208DE831006946F6
:101560000848FEF713FF2803CDE900046946064842
:101570000294FEF70BFF06B070BD000000100240A1
:101580000010014000080140000C014010B586B079
:10159000002417480094019402940394049413497E
:1015A0000594016040F21F31C0E901146321C0E9D4
:1015B000031444618461FFF7C7FC08B172B6FEE70B
:1015C0004FF48050009069460948FFF735FD08B197
:1015D00072B6FEE7049404A905480594FFF780FC61
:1015E000002801D072B6FEE706B010BD002C014005
:1015F00088000020FEE7FEE7704770477047FFF75E
:101600004DB930B58FB028216846FEF792FD142100
:101610000AA8FEF78EFD01252804CDE9005000241C
:1016200007946846FFF7B6FA08B172B6FEE70F20D6
:101630000A90CDE90B540D9400210AA80E94FFF7EF
:10164000CDF9002801D072B6FEE70FB030BD70476B
:1016500010B50748FFF75CFD06480068012806D171
:10166000054C4FF07E512068FEF76EFD206010BDE6
:1016700088000020080000201C000020F0B502684F
:10168000164B174C174D4FF08047984205D0B84283
:1016900003D0A04201D0A84203D122F070064A68CC
:1016A0003243984205D0B84203D0A04201D0A842AC
:1016B00003D122F44074CA6822434C6922F08002AC
:1016C000224302608A68C2620A688262984201D13B
:1016D0000969016301214161F0BD0000002C014056
:1016E000000400400008004010B5846842EA03226C
:1016F00024F47F440A432243826010BD826822F0B2
:1017000070020A4342F007018160704710B5036A16
:10171000046A24F001040462846924F0F00444EAB9
:10172000021423F00A020A438461026210BD10B55C
:10173000036A23F0100303628369046A23F470438D
:1017400043EA023224F0A00343EA011182610162FC
:1017500010BDFEE70FB4084B10B504A902AA039808
:1017600000F02CF8044602A9002000F0D1F8204631
:1017700010BC5DF814FB0000111900080907090EE0
:10178000002804DB00F1E02080F80014704700F02E
:101790000F0000F1E02080F8141D704702E008C837
:1017A000121F08C1002AFAD170477047002001E0DB
:1017B00001C1121F002AFBD1704700002DE9FF4F25
:1017C00089B09B460446002506E025280BD05A46E2
:1017D0000B999047641C6D1C20780028F5D10DB042
:1017E0002846BDE8F08F0027B8460122474900E0AF
:1017F000074314F8013F203B02FA03F00842F7D1F7
:1018000020782E2819D114F8010F47F004072A2850
:101810000ED06FF02F022078A0F1300109290CD8EA
:1018200008EB880102EB410100EB0108641CF2E7C0
:101830000A98641C50F8048B0A9020780028CED0B7
:10184000642808D0692806D075281ED05A460B99FE
:1018500090476D1C58E00A994FF00A0901C90A9196
:10186000002802DA40422D2102E0390504D52B215F
:101870008DF82010012103E0F90704D02021F7E7BB
:101880008A4608AE0DE00021FAE70A994FF00A09EE
:1018900001C90A91F7E74946FEF705FD303106F820
:1018A000011D0028F7D1ADEB060000F120097807F3
:1018B00001D44FF00108C84502DDA8EB090000E0A3
:1018C00000208046002706E008A85A46C05D0B9914
:1018D00090476D1C7F1C5745F6DB04E030205A46CC
:1018E0000B9990476D1CB8F10001A8F10108F5DCD7
:1018F00005E016F8010B5A460B9990476D1CB9F19B
:101900000001A9F10109F4DC641C65E70928010064
:101910000A68531C0B601070704700002DE9F047F7
:10192000244F4FF4805631463846FEF71FFE0028FC
:10193000F9D031463846FEF719FE00251E4C012825
:1019400020D1A06802281DDADFF870904FF400580B
:10195000012241464846FEF70EFE02E01420FEF743
:1019600003FD31463846FEF701FE0128F6D0A06897
:101970000022401CA06041464846FEF7FCFDA068DE
:10198000012803D0A068022802D010E065600EE0B4
:10199000E0690B490646FEF72FFC01460948FEF7B1
:1019A0002BFCFEF767FCC4E90756C4E90105606833
:1019B000BDE8F087000C014000000020001001404D
:1019C0000000C84200007042012000F039B8012830
:1019D00005D04031C8B240F0800000F031B880310D
:1019E000C8B2FAE710B5332000F02AF8322000F030
:1019F00027F83220FEF7B8FC282000F021F832202A
:101A0000FEF7B2FC012000F01BF83220FEF7ACFC20
:101A1000062000F015F83220FEF7A6FC0C2000F09E
:101A20000FF83220FEF7A0FC022000F009F8322067
:101A3000FEF79AFCBDE81040802000F001B80000DD
:101A40001CB500F0F00141F00C028DF8042041F0CB
:101A5000080100018DF8051040F00C018DF806100A
:101A600040F008008DF8070064200090042301AACC
:101A70004E210248FEF74EFE1CBD0000340000203F
:101A80001CB500F0F00141F00D028DF8042041F08A
:101A9000090100018DF8051040F00D018DF80610C8
:101AA00040F009008DF8070064200090042301AA8B
:101AB0004E210248FEF72EFE1CBD0000340000201F
:101AC00010B5044602E0641CFFF7DAFF2078002816
:101AD000F9D110BDA8B0FEF7E9FEFFF792FDFFF7C0
:101AE00001FD86488449002501608549C0E901154A
:101AF0004FF48041C0E9035145618561C5610562CC
:101B0000FEF744FD08B172B6FEE7FFF73FFD7B48E4
:101B10005430FFF765FAFFF765FF00210120FFF75A
:101B200056FF78A0FFF7CCFF4FF47A7B5846FEF7BC
:101B30001BFC00210220FFF74AFF76A0FFF7C0FF41
:101B4000DFF8E0A1784C4FF005094FF4FA78022154
:101B500057465046FEF70AFD002848D13220FEF7CE
:101B600003FC02213846FEF701FD0028F9D00120D0
:101B70002061FFF729FF46464046FEF7F5FB0021AE
:101B80000120FFF724FF69A0FFF79AFF5846FEF7F0
:101B9000EBFB00210120FFF71AFF67A0FFF790FF82
:101BA0003046FEF7E1FB0026FFF7B8FE811E9429C0
:101BB00003D221680844206000E0761E761C052EC2
:101BC000F2DB2168684691FBF9F2E26025605FA1D3
:101BD0006261FFF7BFFDFFF7F7FE4046FEF7C4FB6B
:101BE00000210120FFF7F3FE6846FFF769FF04219B
:101BF0003846FEF7BBFC0028A9D120690128A6D1F0
:101C00003220FEF7B1FB04213846FEF7AFFC002876
:101C1000F9D02561FFF7D8FE47464046FEF7A4FB02
:101C200000210120FFF7D3FE4DA0FFF749FF384602
:101C3000FEF79AFB00210120FFF7C9FE3EA0FFF747
:101C40003FFF3846FEF790FB5FF00006FFF766FEA9
:101C5000811E942903D221680844206000E0761E8A
:101C6000761C052EF2DB216891FBF9F0E06025601F
:101C7000A0616169081A00D540420A284FF00001AE
:101C80004FF001000CDAFFF7A2FE38A0FFF718FFB3
:101C900000210220FFF79BFE26A0FFF711FF0EE0B8
:101CA000FFF795FE36A0FFF70BFF00210220FFF79C
:101CB0008EFE38A0FFF704FF5846FEF755FB23A120
:101CC00068466269FFF746FD37A114A8A269FFF7CD
:101CD00041FD3846FEF748FB00210120FFF777FE63
:101CE0006846FFF7EDFE00210220FFF770FE14A802
:101CF000FFF7E6FE2BE70000005400403400002010
:101D0000A086010020204D656173757265204265D3
:101D100061740000204279205475616E2043756F14
:101D20006E670000000801400000002053746172DB
:101D300074696E6700000000506C65617365207700
:101D4000616974696E672E2E000000004672697327
:101D500074203D2025642042504D202000000000CA
:101D60002020202020204E65787400002020204371
:101D70006F72726563742020202020200000000014
:101D8000202020496E636F7265637420202020201C
:101D900000000000706C65617365207472792061C9
:101DA0006761696E000000005365636F6E64203DDB
:101DB0002025642042504D2000000000000000005B
:101DC00000000000010203040607080900000000EB
:101DD00001020304F41D000800000020340000008C
:101DE0009C170008281E0008340000209C040000F6
:101DF000AC17000800000000000000000000000018
:101E000000000000000000000000000000000000D2
:101E100000000000000000000100000010000000B1
:081E2000000000000024F400A2
:04000005080000ED02
:00000001FF
